{
  "_format": "hh-sol-artifact-1",
  "contractName": "Whitelist",
  "sourceName": "contracts/Whitelist.sol",
  "abi": [
    {
      "inputs": [
        {
          "internalType": "uint8",
          "name": "_maxWhitelistedAddresses",
          "type": "uint8"
        }
      ],
      "stateMutability": "nonpayable",
      "type": "constructor"
    },
    {
      "inputs": [],
      "name": "addToWhitelist",
      "outputs": [],
      "stateMutability": "nonpayable",
      "type": "function"
    },
    {
      "inputs": [],
      "name": "maxWhitelistedAddresses",
      "outputs": [
        {
          "internalType": "uint8",
          "name": "",
          "type": "uint8"
        }
      ],
      "stateMutability": "view",
      "type": "function"
    },
    {
      "inputs": [],
      "name": "numberOfWhitelistedAddresses",
      "outputs": [
        {
          "internalType": "uint8",
          "name": "",
          "type": "uint8"
        }
      ],
      "stateMutability": "view",
      "type": "function"
    },
    {
      "inputs": [
        {
          "internalType": "address",
          "name": "",
          "type": "address"
        }
      ],
      "name": "whitelistedAddresses",
      "outputs": [
        {
          "internalType": "bool",
          "name": "",
          "type": "bool"
        }
      ],
      "stateMutability": "view",
      "type": "function"
    }
  ],
  "bytecode": "0x60a060405234801561001057600080fd5b5060405161040638038061040683398181016040528101906100329190610084565b8060ff1660808160ff1681525050506100b1565b600080fd5b600060ff82169050919050565b6100618161004b565b811461006c57600080fd5b50565b60008151905061007e81610058565b92915050565b60006020828403121561009a57610099610046565b5b60006100a88482850161006f565b91505092915050565b60805161033b6100cb600039600060e9015261033b6000f3fe608060405234801561001057600080fd5b506004361061004c5760003560e01c806306c933d81461005157806331a721881461008157806355aee5ef1461009f57806359896366146100bd575b600080fd5b61006b60048036038101906100669190610212565b6100c7565b604051610078919061025a565b60405180910390f35b6100896100e7565b6040516100969190610291565b60405180910390f35b6100a761010b565b6040516100b49190610291565b60405180910390f35b6100c561011e565b005b60006020528060005260406000206000915054906101000a900460ff1681565b7f000000000000000000000000000000000000000000000000000000000000000081565b600160009054906101000a900460ff1681565b60016000803373ffffffffffffffffffffffffffffffffffffffff1673ffffffffffffffffffffffffffffffffffffffff16815260200190815260200160002060006101000a81548160ff0219169083151502179055506001600081819054906101000a900460ff1680929190610194906102db565b91906101000a81548160ff021916908360ff16021790555050565b600080fd5b600073ffffffffffffffffffffffffffffffffffffffff82169050919050565b60006101df826101b4565b9050919050565b6101ef816101d4565b81146101fa57600080fd5b50565b60008135905061020c816101e6565b92915050565b600060208284031215610228576102276101af565b5b6000610236848285016101fd565b91505092915050565b60008115159050919050565b6102548161023f565b82525050565b600060208201905061026f600083018461024b565b92915050565b600060ff82169050919050565b61028b81610275565b82525050565b60006020820190506102a66000830184610282565b92915050565b7f4e487b7100000000000000000000000000000000000000000000000000000000600052601160045260246000fd5b60006102e682610275565b915060ff8214156102fa576102f96102ac565b5b60018201905091905056fea2646970667358221220cd5bce74ba0cd5803fe5025b19b46ed205b1ee048114475b809002365dc79ee564736f6c634300080c0033",
  "linkReferences": {},
  "deployedLinkReferences": {}
}